{
  "_format": "hh-sol-artifact-1",
  "contractName": "WavePortal",
  "sourceName": "contracts/WavePortal.sol",
  "abi": [
    {
      "inputs": [],
      "stateMutability": "payable",
      "type": "constructor"
    },
    {
      "anonymous": false,
      "inputs": [
        {
          "indexed": true,
          "internalType": "address",
          "name": "from",
          "type": "address"
        },
        {
          "indexed": false,
          "internalType": "uint256",
          "name": "timestamp",
          "type": "uint256"
        },
        {
          "indexed": false,
          "internalType": "string",
          "name": "message",
          "type": "string"
        }
      ],
      "name": "NewWave",
      "type": "event"
    },
    {
      "inputs": [],
      "name": "getAllWaves",
      "outputs": [
        {
          "components": [
            {
              "internalType": "address",
              "name": "waver",
              "type": "address"
            },
            {
              "internalType": "string",
              "name": "message",
              "type": "string"
            },
            {
              "internalType": "uint256",
              "name": "timestamp",
              "type": "uint256"
            }
          ],
          "internalType": "struct WavePortal.Wave[]",
          "name": "",
          "type": "tuple[]"
        }
      ],
      "stateMutability": "view",
      "type": "function"
    },
    {
      "inputs": [],
      "name": "getTotalWaves",
      "outputs": [
        {
          "internalType": "uint256",
          "name": "",
          "type": "uint256"
        }
      ],
      "stateMutability": "view",
      "type": "function"
    },
    {
      "inputs": [],
      "name": "getWhoInteracted",
      "outputs": [
        {
          "internalType": "address[]",
          "name": "",
          "type": "address[]"
        }
      ],
      "stateMutability": "view",
      "type": "function"
    },
    {
      "inputs": [
        {
          "internalType": "address",
          "name": "",
          "type": "address"
        }
      ],
      "name": "lastWavedAt",
      "outputs": [
        {
          "internalType": "uint256",
          "name": "",
          "type": "uint256"
        }
      ],
      "stateMutability": "view",
      "type": "function"
    },
    {
      "inputs": [
        {
          "internalType": "string",
          "name": "_message",
          "type": "string"
        }
      ],
      "name": "wave",
      "outputs": [],
      "stateMutability": "nonpayable",
      "type": "function"
    }
  ],
  "bytecode": "0x60806040526200004f6040518060400160405280601481526020017f746f7262696b20686173206265656e20686572650000000000000000000000008152506200007760201b620008c41760201c565b606444426200005f9190620001c4565b6200006b919062000261565b60018190555062000308565b62000117816040516024016200008e919062000184565b6040516020818303038152906040527f41304fac000000000000000000000000000000000000000000000000000000007bffffffffffffffffffffffffffffffffffffffffffffffffffffffff19166020820180517bffffffffffffffffffffffffffffffffffffffffffffffffffffffff83818316178352505050506200011a60201b60201c565b50565b60008151905060006a636f6e736f6c652e6c6f679050602083016000808483855afa5050505050565b60006200015082620001a8565b6200015c8185620001b3565b93506200016e8185602086016200022b565b6200017981620002f7565b840191505092915050565b60006020820190508181036000830152620001a0818462000143565b905092915050565b600081519050919050565b600082825260208201905092915050565b6000620001d18262000221565b9150620001de8362000221565b9250827fffffffffffffffffffffffffffffffffffffffffffffffffffffffffffffffff0382111562000216576200021562000299565b5b828201905092915050565b6000819050919050565b60005b838110156200024b5780820151818401526020810190506200022e565b838111156200025b576000848401525b50505050565b60006200026e8262000221565b91506200027b8362000221565b9250826200028e576200028d620002c8565b5b828206905092915050565b7f4e487b7100000000000000000000000000000000000000000000000000000000600052601160045260246000fd5b7f4e487b7100000000000000000000000000000000000000000000000000000000600052601260045260246000fd5b6000601f19601f8301169050919050565b61156180620003186000396000f3fe608060405234801561001057600080fd5b50600436106100575760003560e01c8063449d46c01461005c5780639a2cdc0814610078578063a42a466314610096578063bd43a908146100c6578063cc566d83146100e4575b600080fd5b61007660048036038101906100719190610ca6565b610102565b005b610080610561565b60405161008d91906110f0565b60405180910390f35b6100b060048036038101906100ab9190610c7d565b6105ac565b6040516100bd91906110f0565b60405180910390f35b6100ce6105c4565b6040516100db9190610fa7565b60405180910390f35b6100ec6107f2565b6040516100f99190610f85565b60405180910390f35b42603c600460003373ffffffffffffffffffffffffffffffffffffffff1673ffffffffffffffffffffffffffffffffffffffff1681526020019081526020016000205461014f919061123b565b1061018f576040517f08c379a0000000000000000000000000000000000000000000000000000000008152600401610186906110d0565b60405180910390fd5b60016000808282546101a1919061123b565b925050819055506002339080600181540180825580915050600190039060005260206000200160009091909190916101000a81548173ffffffffffffffffffffffffffffffffffffffff021916908373ffffffffffffffffffffffffffffffffffffffff16021790555061024b6040518060400160405280601d81526020017f25732068616420776176656420772f206d657373616765206973202573000000815250338361095d565b600360405180606001604052803373ffffffffffffffffffffffffffffffffffffffff16815260200183815260200142815250908060018154018082558091505060019003906000526020600020906003020160009091909190915060008201518160000160006101000a81548173ffffffffffffffffffffffffffffffffffffffff021916908373ffffffffffffffffffffffffffffffffffffffff160217905550602082015181600101908051906020019061030a929190610b5d565b5060408201518160020155505060646001544244610328919061123b565b610332919061123b565b61033c9190611372565b6001819055506103836040518060400160405280600a81526020017f73656564206973202564000000000000000000000000000000000000000000008152506001546109fc565b601e60015410156104ca576000655af3107a400090506103d86040518060400160405280600781526020017f257320776f6e210000000000000000000000000000000000000000000000000081525033610a98565b4781111561041b576040517f08c379a000000000000000000000000000000000000000000000000000000000815260040161041290611090565b60405180910390fd5b60003373ffffffffffffffffffffffffffffffffffffffff168260405161044190610f70565b60006040518083038185875af1925050503d806000811461047e576040519150601f19603f3d011682016040523d82523d6000602084013e610483565b606091505b50509050806104c7576040517f08c379a00000000000000000000000000000000000000000000000000000000081526004016104be906110b0565b60405180910390fd5b50505b42600460003373ffffffffffffffffffffffffffffffffffffffff1673ffffffffffffffffffffffffffffffffffffffff168152602001908152602001600020819055503373ffffffffffffffffffffffffffffffffffffffff167f5f7e16dc676677766a70e9c5628aa6c54ddb8b6e5188e2ae1e1f17f1ffbea716428360405161055692919061110b565b60405180910390a250565b60006105a46040518060400160405280601681526020017f5765206861766520256420746f74616c207761766564000000000000000000008152506000546109fc565b600054905090565b60046020528060005260406000206000915090505481565b60606106a36003600081548110610604577f4e487b7100000000000000000000000000000000000000000000000000000000600052603260045260246000fd5b906000526020600020906003020160010180546106209061130f565b80601f016020809104026020016040519081016040528092919081815260200182805461064c9061130f565b80156106995780601f1061066e57610100808354040283529160200191610699565b820191906000526020600020905b81548152906001019060200180831161067c57829003601f168201915b50505050506108c4565b6003805480602002602001604051908101604052809291908181526020016000905b828210156107e957838290600052602060002090600302016040518060600160405290816000820160009054906101000a900473ffffffffffffffffffffffffffffffffffffffff1673ffffffffffffffffffffffffffffffffffffffff1673ffffffffffffffffffffffffffffffffffffffff16815260200160018201805461074e9061130f565b80601f016020809104026020016040519081016040528092919081815260200182805461077a9061130f565b80156107c75780601f1061079c576101008083540402835291602001916107c7565b820191906000526020600020905b8154815290600101906020018083116107aa57829003601f168201915b50505050508152602001600282015481525050815260200190600101906106c5565b50505050905090565b60606108386040518060400160405280601581526020017f5765206861766520256420696e746572616374656400000000000000000000008152506002805490506109fc565b60028054806020026020016040519081016040528092919081815260200182805480156108ba57602002820191906000526020600020905b8160009054906101000a900473ffffffffffffffffffffffffffffffffffffffff1673ffffffffffffffffffffffffffffffffffffffff1681526020019060010190808311610870575b5050505050905090565b61095a816040516024016108d89190610fc9565b6040516020818303038152906040527f41304fac000000000000000000000000000000000000000000000000000000007bffffffffffffffffffffffffffffffffffffffffffffffffffffffff19166020820180517bffffffffffffffffffffffffffffffffffffffffffffffffffffffff8381831617835250505050610b34565b50565b6109f78383836040516024016109759392919061101b565b6040516020818303038152906040527fe0e9ad4f000000000000000000000000000000000000000000000000000000007bffffffffffffffffffffffffffffffffffffffffffffffffffffffff19166020820180517bffffffffffffffffffffffffffffffffffffffffffffffffffffffff8381831617835250505050610b34565b505050565b610a948282604051602401610a12929190611060565b6040516020818303038152906040527f9710a9d0000000000000000000000000000000000000000000000000000000007bffffffffffffffffffffffffffffffffffffffffffffffffffffffff19166020820180517bffffffffffffffffffffffffffffffffffffffffffffffffffffffff8381831617835250505050610b34565b5050565b610b308282604051602401610aae929190610feb565b6040516020818303038152906040527f319af333000000000000000000000000000000000000000000000000000000007bffffffffffffffffffffffffffffffffffffffffffffffffffffffff19166020820180517bffffffffffffffffffffffffffffffffffffffffffffffffffffffff8381831617835250505050610b34565b5050565b60008151905060006a636f6e736f6c652e6c6f679050602083016000808483855afa5050505050565b828054610b699061130f565b90600052602060002090601f016020900481019282610b8b5760008555610bd2565b82601f10610ba457805160ff1916838001178555610bd2565b82800160010185558215610bd2579182015b82811115610bd1578251825591602001919060010190610bb6565b5b509050610bdf9190610be3565b5090565b5b80821115610bfc576000816000905550600101610be4565b5090565b6000610c13610c0e84611160565b61113b565b905082815260208101848484011115610c2b57600080fd5b610c368482856112cd565b509392505050565b600081359050610c4d81611514565b92915050565b600082601f830112610c6457600080fd5b8135610c74848260208601610c00565b91505092915050565b600060208284031215610c8f57600080fd5b6000610c9d84828501610c3e565b91505092915050565b600060208284031215610cb857600080fd5b600082013567ffffffffffffffff811115610cd257600080fd5b610cde84828501610c53565b91505092915050565b6000610cf38383610d13565b60208301905092915050565b6000610d0b8383610f02565b905092915050565b610d1c81611291565b82525050565b610d2b81611291565b82525050565b6000610d3c826111b1565b610d4681856111ec565b9350610d5183611191565b8060005b83811015610d82578151610d698882610ce7565b9750610d74836111d2565b925050600181019050610d55565b5085935050505092915050565b6000610d9a826111bc565b610da481856111fd565b935083602082028501610db6856111a1565b8060005b85811015610df25784840389528151610dd38582610cff565b9450610dde836111df565b925060208a01995050600181019050610dba565b50829750879550505050505092915050565b6000610e0f826111c7565b610e198185611219565b9350610e298185602086016112dc565b610e328161145f565b840191505092915050565b6000610e48826111c7565b610e52818561122a565b9350610e628185602086016112dc565b610e6b8161145f565b840191505092915050565b6000610e83601a8361122a565b9150610e8e82611470565b602082019050919050565b6000610ea660268361122a565b9150610eb182611499565b604082019050919050565b6000610ec960118361122a565b9150610ed4826114e8565b602082019050919050565b6000610eec60008361120e565b9150610ef782611511565b600082019050919050565b6000606083016000830151610f1a6000860182610d13565b5060208301518482036020860152610f328282610e04565b9150506040830151610f476040860182610f52565b508091505092915050565b610f5b816112c3565b82525050565b610f6a816112c3565b82525050565b6000610f7b82610edf565b9150819050919050565b60006020820190508181036000830152610f9f8184610d31565b905092915050565b60006020820190508181036000830152610fc18184610d8f565b905092915050565b60006020820190508181036000830152610fe38184610e3d565b905092915050565b600060408201905081810360008301526110058185610e3d565b90506110146020830184610d22565b9392505050565b600060608201905081810360008301526110358186610e3d565b90506110446020830185610d22565b81810360408301526110568184610e3d565b9050949350505050565b6000604082019050818103600083015261107a8185610e3d565b90506110896020830184610f61565b9392505050565b600060208201905081810360008301526110a981610e76565b9050919050565b600060208201905081810360008301526110c981610e99565b9050919050565b600060208201905081810360008301526110e981610ebc565b9050919050565b60006020820190506111056000830184610f61565b92915050565b60006040820190506111206000830185610f61565b81810360208301526111328184610e3d565b90509392505050565b6000611145611156565b90506111518282611341565b919050565b6000604051905090565b600067ffffffffffffffff82111561117b5761117a611430565b5b6111848261145f565b9050602081019050919050565b6000819050602082019050919050565b6000819050602082019050919050565b600081519050919050565b600081519050919050565b600081519050919050565b6000602082019050919050565b6000602082019050919050565b600082825260208201905092915050565b600082825260208201905092915050565b600081905092915050565b600082825260208201905092915050565b600082825260208201905092915050565b6000611246826112c3565b9150611251836112c3565b9250827fffffffffffffffffffffffffffffffffffffffffffffffffffffffffffffffff03821115611286576112856113a3565b5b828201905092915050565b600061129c826112a3565b9050919050565b600073ffffffffffffffffffffffffffffffffffffffff82169050919050565b6000819050919050565b82818337600083830152505050565b60005b838110156112fa5780820151818401526020810190506112df565b83811115611309576000848401525b50505050565b6000600282049050600182168061132757607f821691505b6020821081141561133b5761133a611401565b5b50919050565b61134a8261145f565b810181811067ffffffffffffffff8211171561136957611368611430565b5b80604052505050565b600061137d826112c3565b9150611388836112c3565b925082611398576113976113d2565b5b828206905092915050565b7f4e487b7100000000000000000000000000000000000000000000000000000000600052601160045260246000fd5b7f4e487b7100000000000000000000000000000000000000000000000000000000600052601260045260246000fd5b7f4e487b7100000000000000000000000000000000000000000000000000000000600052602260045260246000fd5b7f4e487b7100000000000000000000000000000000000000000000000000000000600052604160045260246000fd5b6000601f19601f8301169050919050565b7f6661696c6564206263206e6f7420656e6f756768206d6f6e6579000000000000600082015250565b7f4661696c656420746f207769746864726177206d6f6e65792066726f6d20636f60008201527f6e74726163740000000000000000000000000000000000000000000000000000602082015250565b7f776169742031206d696e20706c65617365000000000000000000000000000000600082015250565b50565b61151d81611291565b811461152857600080fd5b5056fea26469706673582212208f64ecc8a07c2b3dcd379fa9eb98db3b3aa5da44f64f42c2d6a0bb91b79b041764736f6c63430008040033",
  "linkReferences": {},
  "deployedLinkReferences": {}
}