{
  "_format": "hh-sol-artifact-1",
  "contractName": "WavePortal",
  "sourceName": "contracts/WavePortal.sol",
  "abi": [
    {
      "inputs": [],
      "stateMutability": "nonpayable",
      "type": "constructor"
    },
    {
      "anonymous": false,
      "inputs": [
        {
          "indexed": true,
          "internalType": "address",
          "name": "from",
          "type": "address"
        },
        {
          "indexed": false,
          "internalType": "uint256",
          "name": "timestamp",
          "type": "uint256"
        },
        {
          "indexed": false,
          "internalType": "string",
          "name": "message",
          "type": "string"
        }
      ],
      "name": "NewWave",
      "type": "event"
    },
    {
      "inputs": [],
      "name": "getAllWaves",
      "outputs": [
        {
          "components": [
            {
              "internalType": "address",
              "name": "waver",
              "type": "address"
            },
            {
              "internalType": "string",
              "name": "message",
              "type": "string"
            },
            {
              "internalType": "uint256",
              "name": "timestamp",
              "type": "uint256"
            }
          ],
          "internalType": "struct WavePortal.Wave[]",
          "name": "",
          "type": "tuple[]"
        }
      ],
      "stateMutability": "view",
      "type": "function"
    },
    {
      "inputs": [],
      "name": "getTotalWaves",
      "outputs": [
        {
          "internalType": "uint256",
          "name": "",
          "type": "uint256"
        }
      ],
      "stateMutability": "view",
      "type": "function"
    },
    {
      "inputs": [],
      "name": "getWhoInteracted",
      "outputs": [
        {
          "internalType": "address[]",
          "name": "",
          "type": "address[]"
        }
      ],
      "stateMutability": "view",
      "type": "function"
    },
    {
      "inputs": [
        {
          "internalType": "string",
          "name": "_message",
          "type": "string"
        }
      ],
      "name": "wave",
      "outputs": [],
      "stateMutability": "nonpayable",
      "type": "function"
    }
  ],
  "bytecode": "0x60806040523480156200001157600080fd5b506200005d6040518060400160405280601481526020017f746f7262696b20686173206265656e20686572650000000000000000000000008152506200006360201b620005ed1760201c565b620001f7565b62000103816040516024016200007a919062000170565b6040516020818303038152906040527f41304fac000000000000000000000000000000000000000000000000000000007bffffffffffffffffffffffffffffffffffffffffffffffffffffffff19166020820180517bffffffffffffffffffffffffffffffffffffffffffffffffffffffff83818316178352505050506200010660201b60201c565b50565b60008151905060006a636f6e736f6c652e6c6f679050602083016000808483855afa5050505050565b60006200013c8262000194565b6200014881856200019f565b93506200015a818560208601620001b0565b6200016581620001e6565b840191505092915050565b600060208201905081810360008301526200018c81846200012f565b905092915050565b600081519050919050565b600082825260208201905092915050565b60005b83811015620001d0578082015181840152602081019050620001b3565b83811115620001e0576000848401525b50505050565b6000601f19601f8301169050919050565b610f5980620002076000396000f3fe608060405234801561001057600080fd5b506004361061004c5760003560e01c8063449d46c0146100515780639a2cdc081461006d578063bd43a9081461008b578063cc566d83146100a9575b600080fd5b61006b600480360381019061006691906108f5565b6100c7565b005b6100756102a2565b6040516100829190610c0e565b60405180910390f35b6100936102ed565b6040516100a09190610b55565b60405180910390f35b6100b161051b565b6040516100be9190610b33565b60405180910390f35b60016000808282546100d99190610d4e565b925050819055506001339080600181540180825580915050600190039060005260206000200160009091909190916101000a81548173ffffffffffffffffffffffffffffffffffffffff021916908373ffffffffffffffffffffffffffffffffffffffff1602179055506101836040518060400160405280601d81526020017f25732068616420776176656420772f206d6573736167652069732025730000008152503383610686565b600260405180606001604052803373ffffffffffffffffffffffffffffffffffffffff16815260200183815260200142815250908060018154018082558091505060019003906000526020600020906003020160009091909190915060008201518160000160006101000a81548173ffffffffffffffffffffffffffffffffffffffff021916908373ffffffffffffffffffffffffffffffffffffffff16021790555060208201518160010190805190602001906102429291906107ea565b506040820151816002015550503373ffffffffffffffffffffffffffffffffffffffff167f5f7e16dc676677766a70e9c5628aa6c54ddb8b6e5188e2ae1e1f17f1ffbea7164283604051610297929190610c29565b60405180910390a250565b60006102e56040518060400160405280601681526020017f5765206861766520256420746f74616c20776176656400000000000000000000815250600054610725565b600054905090565b60606103cc600260008154811061032d577f4e487b7100000000000000000000000000000000000000000000000000000000600052603260045260246000fd5b9060005260206000209060030201600101805461034990610e22565b80601f016020809104026020016040519081016040528092919081815260200182805461037590610e22565b80156103c25780601f10610397576101008083540402835291602001916103c2565b820191906000526020600020905b8154815290600101906020018083116103a557829003601f168201915b50505050506105ed565b6002805480602002602001604051908101604052809291908181526020016000905b8282101561051257838290600052602060002090600302016040518060600160405290816000820160009054906101000a900473ffffffffffffffffffffffffffffffffffffffff1673ffffffffffffffffffffffffffffffffffffffff1673ffffffffffffffffffffffffffffffffffffffff16815260200160018201805461047790610e22565b80601f01602080910402602001604051908101604052809291908181526020018280546104a390610e22565b80156104f05780601f106104c5576101008083540402835291602001916104f0565b820191906000526020600020905b8154815290600101906020018083116104d357829003601f168201915b50505050508152602001600282015481525050815260200190600101906103ee565b50505050905090565b60606105616040518060400160405280601581526020017f5765206861766520256420696e74657261637465640000000000000000000000815250600180549050610725565b60018054806020026020016040519081016040528092919081815260200182805480156105e357602002820191906000526020600020905b8160009054906101000a900473ffffffffffffffffffffffffffffffffffffffff1673ffffffffffffffffffffffffffffffffffffffff1681526020019060010190808311610599575b5050505050905090565b610683816040516024016106019190610b77565b6040516020818303038152906040527f41304fac000000000000000000000000000000000000000000000000000000007bffffffffffffffffffffffffffffffffffffffffffffffffffffffff19166020820180517bffffffffffffffffffffffffffffffffffffffffffffffffffffffff83818316178352505050506107c1565b50565b61072083838360405160240161069e93929190610b99565b6040516020818303038152906040527fe0e9ad4f000000000000000000000000000000000000000000000000000000007bffffffffffffffffffffffffffffffffffffffffffffffffffffffff19166020820180517bffffffffffffffffffffffffffffffffffffffffffffffffffffffff83818316178352505050506107c1565b505050565b6107bd828260405160240161073b929190610bde565b6040516020818303038152906040527f9710a9d0000000000000000000000000000000000000000000000000000000007bffffffffffffffffffffffffffffffffffffffffffffffffffffffff19166020820180517bffffffffffffffffffffffffffffffffffffffffffffffffffffffff83818316178352505050506107c1565b5050565b60008151905060006a636f6e736f6c652e6c6f679050602083016000808483855afa5050505050565b8280546107f690610e22565b90600052602060002090601f016020900481019282610818576000855561085f565b82601f1061083157805160ff191683800117855561085f565b8280016001018555821561085f579182015b8281111561085e578251825591602001919060010190610843565b5b50905061086c9190610870565b5090565b5b80821115610889576000816000905550600101610871565b5090565b60006108a061089b84610c7e565b610c59565b9050828152602081018484840111156108b857600080fd5b6108c3848285610de0565b509392505050565b600082601f8301126108dc57600080fd5b81356108ec84826020860161088d565b91505092915050565b60006020828403121561090757600080fd5b600082013567ffffffffffffffff81111561092157600080fd5b61092d848285016108cb565b91505092915050565b60006109428383610962565b60208301905092915050565b600061095a8383610ac5565b905092915050565b61096b81610da4565b82525050565b61097a81610da4565b82525050565b600061098b82610ccf565b6109958185610d0a565b93506109a083610caf565b8060005b838110156109d15781516109b88882610936565b97506109c383610cf0565b9250506001810190506109a4565b5085935050505092915050565b60006109e982610cda565b6109f38185610d1b565b935083602082028501610a0585610cbf565b8060005b85811015610a415784840389528151610a22858261094e565b9450610a2d83610cfd565b925060208a01995050600181019050610a09565b50829750879550505050505092915050565b6000610a5e82610ce5565b610a688185610d2c565b9350610a78818560208601610def565b610a8181610f12565b840191505092915050565b6000610a9782610ce5565b610aa18185610d3d565b9350610ab1818560208601610def565b610aba81610f12565b840191505092915050565b6000606083016000830151610add6000860182610962565b5060208301518482036020860152610af58282610a53565b9150506040830151610b0a6040860182610b15565b508091505092915050565b610b1e81610dd6565b82525050565b610b2d81610dd6565b82525050565b60006020820190508181036000830152610b4d8184610980565b905092915050565b60006020820190508181036000830152610b6f81846109de565b905092915050565b60006020820190508181036000830152610b918184610a8c565b905092915050565b60006060820190508181036000830152610bb38186610a8c565b9050610bc26020830185610971565b8181036040830152610bd48184610a8c565b9050949350505050565b60006040820190508181036000830152610bf88185610a8c565b9050610c076020830184610b24565b9392505050565b6000602082019050610c236000830184610b24565b92915050565b6000604082019050610c3e6000830185610b24565b8181036020830152610c508184610a8c565b90509392505050565b6000610c63610c74565b9050610c6f8282610e54565b919050565b6000604051905090565b600067ffffffffffffffff821115610c9957610c98610ee3565b5b610ca282610f12565b9050602081019050919050565b6000819050602082019050919050565b6000819050602082019050919050565b600081519050919050565b600081519050919050565b600081519050919050565b6000602082019050919050565b6000602082019050919050565b600082825260208201905092915050565b600082825260208201905092915050565b600082825260208201905092915050565b600082825260208201905092915050565b6000610d5982610dd6565b9150610d6483610dd6565b9250827fffffffffffffffffffffffffffffffffffffffffffffffffffffffffffffffff03821115610d9957610d98610e85565b5b828201905092915050565b6000610daf82610db6565b9050919050565b600073ffffffffffffffffffffffffffffffffffffffff82169050919050565b6000819050919050565b82818337600083830152505050565b60005b83811015610e0d578082015181840152602081019050610df2565b83811115610e1c576000848401525b50505050565b60006002820490506001821680610e3a57607f821691505b60208210811415610e4e57610e4d610eb4565b5b50919050565b610e5d82610f12565b810181811067ffffffffffffffff82111715610e7c57610e7b610ee3565b5b80604052505050565b7f4e487b7100000000000000000000000000000000000000000000000000000000600052601160045260246000fd5b7f4e487b7100000000000000000000000000000000000000000000000000000000600052602260045260246000fd5b7f4e487b7100000000000000000000000000000000000000000000000000000000600052604160045260246000fd5b6000601f19601f830116905091905056fea264697066735822122072aab9e3d820ab6e0260e6b343a0c4aeb20dae4d6d2c0fbbde1a1dc8df12b13264736f6c63430008040033",
  "linkReferences": {},
  "deployedLinkReferences": {}
}